:100000000C94B3000C945A030C94D4000C94D400B8
:100010000C94D4000C94B1060C948C060C94D4006F
:100020000C94D4000C94D4000C94D4000C94D40000
:100030000C94D4000C94D4000C94D4000C94D400F0
:100040000C94D4000C94D4000C94D4000C94D400E0
:100050000C94D4000C94D4000C94D4000C94D400D0
:100060000C94D4000C94D4000C94D4000C94D400C0
:100070000C94D4000C94D4000C94D4000C94D400B0
:100080000C94D4000C94D4000C94D4000C94D400A0
:100090000C94D4000C94D4000C94D4000C94D40090
:1000A0000C94D4000C94D4000C94D4000C94D40080
:1000B0000C94D4000C94D4000C94D4000C94D40070
:1000C0000C94D4000C94D4000C94D4000C94D40060
:1000D0000C94D4000C94D4000C94D4000C94D40050
:1000E0000C94D40007634236B79BD8A71A396856D8
:1000F00018AEBAAB558C1D3CB7CC5763BD6DEDFD4A
:10010000753EF6177231BF000000803F0800000006
:10011000BE922449123EABAAAA2ABECDCCCC4C3EFC
:1001200000000080BEABAAAAAA3E00000000BF00EB
:100130000000803F0000000000084178D3BB4387E7
:10014000D1133D190E3CC3BD4282AD2B3E68EC82FB
:1001500076BED98FE1A93E4C80EFFFBE01C4FF7F80
:100160003F000000000011241FBECFEFD1E2DEBF30
:10017000CDBF00E00CBF12E0A0E0B2E0E4E3F7E5A1
:1001800000E00BBF02C007900D92A236B107D9F76D
:1001900013E0A2E6B2E001C01D92AB31B107E1F776
:1001A0000E9414280C94982B0C9400000895089534
:1001B00086E69EE00197F1F700004098419880E3C1
:1001C00088B9429AEFEFF7E43197F1F700C00000E9
:1001D0004298E6E6FEE03197F1F70000409841983A
:1001E00088B9429AEFEFF7E43197F1F700C00000C9
:1001F0004298E6E6FEE03197F1F70000409841981A
:1002000088B9429A8FEF97E40197F1F700C0000098
:100210004298E6E6FEE03197F1F7000040984198F9
:1002200080E288B9429A8FEF97E40197F1F700C016
:1002300000004298089598B19F7098B998B1282FFE
:10024000207F922B98B940984198429AEFEFF7E4BB
:100250003197F1F700C00000429898B19F7098B9AB
:1002600098B18295807F892B88B940984198429AAD
:100270008FEF97E40197F1F700C0000042980895CE
:1002800086E69EE00197F1F7000088E20E941B01DC
:1002900081E00E941B0186E00E941B018EE00E940B
:1002A0001B0180E80E941B01089598B19F7098B9C6
:1002B00098B1282F207F922B98B9409A4198429A62
:1002C000EFEFF7E43197F1F700C00000429898B1E2
:1002D0009F7098B998B18295807F892B88B9409A90
:1002E0004198429A8FEF97E40197F1F700C0000020
:1002F0004298089580E80E941B010895CF93DF93F0
:10030000EC018881882331F021960E945501899162
:100310008823D9F7DF91CF910895823079F0833027
:1003200018F48130C9F405C0833069F08430A1F439
:100330000FC0862F81580E941B010895862F81547B
:100340000E941B010895862F8D560E941B0108955F
:10035000862F8D520E941B0108950F931F93CF93F8
:10036000DF938A01E901882311F0662319F40E94C2
:100370007A0102C00E948D01C530D10571F4C80117
:1003800060E177E20E94842BCB01C0969093B90282
:100390008093B8020E94550103C0C430D105B9F45E
:1003A000C80168EE73E00E94842BCB017093C102F8
:1003B0006093C0026AE070E00E94842BC096909324
:1003C000100380930F030E94550181E001C080E07B
:1003D000C330D10511F08130B1F4C80164E670E09A
:1003E0000E94842BCB017093C1026093C0026AE02B
:1003F00070E00E94842BC0969093020380930103C7
:100400000E94550181E0C230D10511F08130B1F474
:100410002AE030E0C801B9010E94842BCB0170931F
:10042000C1026093C002B9010E94842BC0969093D0
:10043000F7028093F6020E94550181E0C130D10598
:1004400011F0813061F4C8016AE070E00E94842BF1
:10045000C09690930E0380930D030E945501C63001
:10046000D1051CF085E40E945501DF91CF911F91C9
:100470000F910895259A2D9A0895E1E0F1E0808189
:1004800080628083E2E0F1E0808180628083089571
:10049000E1E0F1E0808180618083E2E0F1E0808151
:1004A000806180830895EAE0F1E080818064808348
:1004B000EBE0F1E08081806480830895EAE0F1E080
:1004C000808180688083EBE0F1E0808180688083B8
:1004D0000895269A2E9A0895279A2F9A0895E1E86A
:1004E000F0E010828CEF8093850081E0809384009F
:1004F00093E0909389008FEF8093880090938B0016
:1005000080938A0090938D0080938C009093870055
:10051000809386008BEA80938000109282008CE0AA
:100520008083089510928900682F70E080E090E049
:100530000E942E292BE734E14EEE5FE30E949528BE
:1005400020E030E04CE052E40E9431280E94022971
:1005500060938800089580E280930201089580E10D
:100560008093020108951092020110920B010895E8
:1005700080E480930B0108950E94AB020E94B802B0
:100580008FEF9FEFA0EE81509040A040E1F700C0B8
:100590000000089580E880930B0108950E94AF0247
:1005A0000E94CA028FEF9FEFA0EE81509040A040C2
:1005B000E1F700C0000010927A02109279020895CB
:1005C00010928B00682F70E080E090E00E942E294E
:1005D0002BE734E14EEE5FE30E94952820E030E007
:1005E0004CE052E40E9431280E94022960938A0064
:1005F000089510928D00682F70E080E090E00E94D6
:100600002E292BE734E14EEE5FE30E94952820E08F
:1006100030E04CE052E40E9431280E9402296093AD
:100620008C00089588E70E94E0028FEF9FEFA6E814
:1006300081509040A040E1F700C000008AE50E9490
:1006400092028FEF9FEFA6E881509040A040E1F723
:1006500000C000008BE40E94F9028FEF9FEFA6E834
:1006600081509040A040E1F700C00000089583E071
:10067000809389008FEF80938800089583E08093B2
:100680008B008FEF80938A00089583E080938D0024
:100690008FEF80938C0008958AB18E6F8AB9589A33
:1006A0000895F894E9E6F0E0808182608083E89A1A
:1006B000789408951F920F920FB60F9211248F9382
:1006C0009F93AF93BF938091A7029091A802A091AE
:1006D000A902B091AA020196A11DB11D8093A702A3
:1006E0009093A802A093A902B093AA02BF91AF91E0
:1006F0009F918F910F900FBE0F901F9018955E984D
:100700005F9808955E9A5F9A08955E985F9A08953B
:100710005E9A5F9808955C9A5D9A08950F931F936F
:100720000E947F031092A7021092A8021092A902C1
:100730001092AA028FEF9FE7A4E081509040A04062
:10074000E1F700C000008091A7029091A802A0915B
:10075000A902B091AA028093C7029093C802A09305
:10076000C902B093CA028091C7029091C802A091B9
:10077000C902B091CA028093640281E061E00E94E4
:100780008D0180E092E00E947E010091C7021091ED
:10079000C8022091C9023091CA0282E061E0A8013A
:1007A00025E030E00E94AD018FEF9FEFACE2815079
:1007B0009040A040E1F700C0000081E00E941B01D2
:1007C0001F910F9108950F931F930E94820310921F
:1007D000A7021092A8021092A9021092AA028FEF0B
:1007E0009FE7A4E081509040A040E1F700C00000E6
:1007F0008091A7029091A802A091A902B091AA02AB
:100800008093C3029093C402A093C502B093C60222
:100810008091C3029091C402A091C502B091C6021A
:100820008093630281E061E00E948D018BE092E0A1
:100830000E947E010091C3021091C4022091C50262
:100840003091C60282E061E0A80125E030E00E941C
:10085000AD018FEF9FEFACE281509040A040E1F7F7
:1008600000C0000081E00E941B011F910F910895BC
:100870000F931F930E9485031092A7021092A80263
:100880001092A9021092AA028FEF9FE7A4E0815074
:100890009040A040E1F700C000008091A702909135
:1008A000A802A091A902B091AA028093B1029093EC
:1008B000B202A093B302B093B4028091B1029091BE
:1008C000B202A091B302B091B4028093620281E0BF
:1008D00061E00E948D0188E192E00E947E0100911A
:1008E000B1021091B2022091B3023091B40282E0C1
:1008F00061E0A80125E030E00E94AD018FEF9FEF9D
:10090000ACE281509040A040E1F700C0000081E0DF
:100910000E941B011F910F91089510BA11BA1092F5
:100920000701109208010895EAE7F0E010821092A2
:100930007B0080E280937C0080E880BF86E8808333
:100940000895883018F098E090937B00877080625B
:1009500080937C00EAE7F0E080818064808380817E
:1009600084FFFDCF80917900EAE7F0E0908190610B
:10097000908310927B0008950F931F93682F70E06F
:1009800080E090E00E942E292FEE39EC43E95FE3EE
:100990000E941F2AB62FA72F382F292F60E070E062
:1009A00080E89FE3422F0B2F1A2F232F342FA9010A
:1009B00098010E9495282AE939EF4EE255E40E94F9
:1009C000BC2920E030E040E251E40E94BC290E94B2
:1009D000FD28882777FD8095982F0E9430290E9456
:1009E000FD28862F972F23E08132920710F080E2B6
:1009F00093E01F910F91089587B1876F87B988B1F0
:100A0000807888B90895CF93DF93D82FC62F842F8D
:100A10000E94A104482F8093DB028D2F6C2F50E0A1
:100A200023E030E00E94AD01DF91CF91089581E095
:100A300061E043E00E94030581E065E042E00E943E
:100A4000030581E069E041E00E94030540918702CF
:100A500081E06DE050E021E030E00E94AD01409186
:100A600051025091520281E06FE021E030E00E949B
:100A7000AD014091860282E061E050E021E030E08B
:100A80000E94AD01409167025091680282E063E0EC
:100A900021E030E00E94AD01409183025091840238
:100AA00082E065E021E030E00E94AD0140918502E6
:100AB00082E068E050E021E030E00E94AD0140912A
:100AC00065025091660282E06AE021E030E00E9417
:100AD000AD01409181025091820282E06CE021E000
:100AE00030E00E94AD0180918902809304030E944E
:100AF000BC0490931A0380931903089583E00E9425
:100B0000A10480938C0282E00E94A10480938B0256
:100B100081E00E94A10480938A028BE00E94A104DC
:100B20008093890286E00E94A104809388020E943B
:100B3000170508956C98749A08956D98759A08959C
:100B4000F894EAE6F0E0808182608083EC9A789401
:100B50000895F894EAE6F0E0808188608083ED9A59
:100B6000789408958093280160932A01089592B1A2
:100B7000907F8F70982B92B9089580E00E94B705FE
:100B8000089589E00E94B705089586E00E94B705A0
:100B9000089580918C02813180F480918B028131A3
:100BA00060F080918A02813140F480915F0260910F
:100BB0005D020E94B2050E94C5050895BC0180E057
:100BC00090E00E942E2925EE30ED4AEA50E40E9482
:100BD00095280E940229462F572F682F792F1092AF
:100BE0009F021092A0021092A1021092A202809184
:100BF0009F029091A002A091A102B091A202481779
:100C000059076A077B0798F70E94BD050895CF939F
:100C1000DF93EC010E94C505CE010E94DE05DF9145
:100C2000CF910895CF93DF93EC010E94C105CE01CF
:100C30000E94DE05DF91CF91089585E00E94B705FF
:100C400008958AE00E94B705089584E00E94B705E0
:100C5000089582E00E94B705089581E00E94B705DB
:100C6000089588E00E94B70508950F931F93CF93CE
:100C7000BC0180E090E00E942E2928E431EE42E899
:100C800050E40E9495280E940229DC01CB01A0E0DB
:100C9000B0E010929F021092A0021092A102109256
:100CA000A2021092A3021092A4021092A502109226
:100CB000A602F1E0C0E040919F025091A002609135
:100CC000A1027091A2020091A3021091A4022091AE
:100CD000A5023091A602EF2F481759076A077B0734
:100CE00008F4EC2FEE2349F44F2F081719072A07B1
:100CF0003B0708F44C2F4423F1F20E94BD058FEF0F
:100D00009FEFACE281509040A040E1F700C00000AE
:100D1000CF911F910F9108951F920F920FB60F92CE
:100D200011248F939F93AF93BF9380919F029091D3
:100D3000A002A091A102B091A2020196A11DB11D35
:100D400080939F029093A002A093A102B093A2026D
:100D5000BF91AF919F918F910F900FBE0F901F90F9
:100D600018951F920F920FB60F9211248F939F9395
:100D7000AF93BF938091A3029091A402A091A5028A
:100D8000B091A6020196A11DB11D8093A30290937C
:100D9000A402A093A502B093A602BF91AF919F9128
:100DA0008F910F900FBE0F901F901895CF93DF93E8
:100DB000EC010E941D06CE010E943506DF91CF9105
:100DC00008958FE590E00E94D606089580918C02E8
:100DD000813160F080918B02813140F480918A02F0
:100DE000813120F486E090E00E94D6060895CF93EA
:100DF000DF93EC010E942106CE010E943506DF91AF
:100E0000CF9108958FE590E00E94F70608958091B4
:100E10008C02813160F480918B02813140F48091A9
:100E20008A02813120F086E090E00E94F706089562
:100E300081B18F6081B982B1807F82B9EAE0F1E04F
:100E4000808188618083EBE0F1E08081886180832C
:100E50000895E1E2F1E010828FEF8093250191E0A7
:100E600090932401109229018093280110922B0164
:100E700080932A0110922D0180932C0189EA80939E
:100E800020018BE0808308953B9A4398089586B1B2
:100E9000886088B9089586B1877F88B908950E94CF
:100EA000C9050E9407070E94D6000E94E6060E941C
:100EB000D7000E942C1608958091670290916802D5
:100EC0008130910509F58091790290917A02813003
:100ED000910549F41092860281E090E0909384029B
:100EE0008093830207C081E080938602109284027F
:100EF0001092830281E08093530281E090E090930E
:100F0000780280937702089580916502909166023D
:100F10008130910501F58091790290917A028130BA
:100F2000910549F41092850281E090E0909382024D
:100F30008093810207C081E0809385021092820233
:100F40001092810281E08093530281E090E09093BF
:100F500078028093770208958091790290917A02C5
:100F600081309105E1F480916702909168028130AF
:100F7000910539F481E090E090938402809383029C
:100F800016C080916502909166028130910579F4D6
:100F900081E090E0909382028093810208C01092D9
:100FA00084021092830210928202109281021092A7
:100FB000530210927802109277020895809187026E
:100FC000833081F41092850281E090E09093660274
:100FD00080936502109282021092810281E08093D8
:100FE00053020895813079F41092860281E090E0F6
:100FF0009093680280936702109284021092830299
:1010000081E0809353020895089580918702833090
:1010100089F481E08093530282E08093850281E02D
:1010200090E0909366028093650210928202109283
:1010300081020895813079F48093530282E0809395
:10104000860281E090E0909368028093670210929C
:10105000840210928302089508950E9447078FEF3B
:101060009FE7A6E181509040A040E1F700C000005A
:101070000E944B071092860281E0809387021092B3
:10108000850210926802109267028093530281E0F9
:1010900090E0909352028093510290936C0280935F
:1010A0006B0208950E9447078FEF9FE7A6E18150EA
:1010B0009040A040E1F700C000000E944B07109252
:1010C000860283E080938702109285021092660266
:1010D000109265021092530281E090E090935202C8
:1010E0008093510210926C0210926B0208958FEF60
:1010F0009FEFACE281509040A040E1F700C00000BB
:1011000089EB0E9492028FEF9FEFACE281509040FA
:10111000A040E1F700C0000080EA0E94E0028FEFEB
:101120009FEFACE281509040A040E1F700C000008A
:1011300088E20E94F9028FEF9FEFACE2815090406D
:10114000A040E1F700C0000008958FEF9FEFACE2F0
:1011500081509040A040E1F700C0000080E00E9474
:1011600092028FEF9FEFACE281509040A040E1F7F8
:1011700000C0000080EA0E94E0028FEF9FEFACE227
:1011800081509040A040E1F700C0000088E20E943A
:10119000F9028FEF9FEFACE281509040A040E1F761
:1011A00000C000000895CF93DF93EC010E94BC02C1
:1011B00081E090E090937A02809379020E9412037A
:1011C000D0937C02C0937B02DF91CF9108958091F0
:1011D0007B0290917C022091110330911203281719
:1011E000390741F42091F8023091F90221153105B7
:1011F00009F487C02091130330911403281739078D
:1012000041F42091FA023091FB022115310509F4D5
:101210007DC020911503309116032817390739F442
:101220002091FC023091FD0221153105A1F02091A1
:101230001703309118032817390709F04FC0809120
:10124000FE029091FF02009709F048C081E090E013
:1012500021E030E004C080E090E020E030E0309316
:10126000B0022093AF0221E030E03093DD02209302
:10127000DC02009729F519C00E9402078BE090E07C
:1012800090937E0280937D0281E090E0089581300A
:10129000910589F50E9402078CE090E090937E0210
:1012A00080937D0281E090E008950E94E1068FE145
:1012B00090E090937E0280937D0281E090E008951B
:1012C00081309105D9F40E94E10680E290E090938C
:1012D0007E0280937D0281E090E0089582E090E0BC
:1012E0009093B0028093AF029093DD028093DC0272
:1012F00080E090E0089581E090E0089581E090E042
:10130000089580E090E020E030E004C081E090E0CB
:1013100021E030E03093B0022093AF021092DD0262
:101320001092DC02009709F0B2CFA6CF80917B0229
:1013300090917C022091050330910603281739070C
:1013400041F42091EE023091EF022115310509F4AC
:1013500087C020910703309108032817390741F40B
:101360002091F0023091F1022115310509F47DC080
:101370002091090330910A032817390739F4209185
:10138000F2023091F30221153105A1F020910B03F7
:1013900030910C032817390709F04FC08091F402EF
:1013A0009091F502009709F048C081E090E021E0BB
:1013B00030E004C080E090E020E030E03093B00204
:1013C0002093AF0221E030E03093DD022093DC0275
:1013D000009729F519C00E94E10685E190E09093FD
:1013E0007E0280937D0281E090E008958130910536
:1013F00089F50E94E10686E190E090937E02809359
:101400007D0281E090E008950E94020789E290E069
:1014100090937E0280937D0281E090E00895813078
:101420009105D9F40E9402078AE290E090937E022F
:1014300080937D0281E090E0089582E090E09093B7
:10144000B0028093AF029093DD028093DC0280E0D3
:1014500090E0089581E090E0089581E090E00895A3
:1014600080E090E020E030E004C081E090E021E006
:1014700030E03093B0022093AF021092DD02109260
:10148000DC02009709F0B2CFA6CF8091790290914B
:101490007A028130910579F50E94E708009771F58D
:1014A0000E9447078FEF9FEFACE281509040A04031
:1014B000E1F700C000000E944B078091AB029091C1
:1014C000AC0201968230910538F480E090E00E94F1
:1014D000F10F22E030E01AC08091AD029091AE028F
:1014E00001968230910568F481E090E00E94F10F4E
:1014F00022E030E00BC0009739F0089521E030E0A1
:1015000005C022E030E002C020E030E0822F932FBF
:1015100008958091790290917A028130910579F550
:101520000E949609009771F50E9447078FEF9FEF81
:10153000ACE281509040A040E1F700C000000E9462
:101540004B078091AB029091AC02019682309105DD
:1015500038F480E090E00E94F10F22E030E01AC001
:101560008091AD029091AE0201968230910568F4AF
:1015700081E090E00E94F10F22E030E00BC0009784
:1015800039F0089521E030E005C022E030E002C0EB
:1015900020E030E0822F932F089580916702909190
:1015A000680281309105E1F58091EE029091EF02A1
:1015B00020910503309106038217930719F00097D5
:1015C00009F06DC08091F0029091F1022091070323
:1015D000309108038217930719F0009709F062C051
:1015E0008091F2029091F3022091090330910A0355
:1015F0008217930719F0009709F057C08091F40201
:101600009091F50220910B0330910C038217930700
:1016100009F44EC0009709F04EC020E030E05CC0F5
:10162000809165029091660281309105B9F58091B3
:10163000F8029091F9022091110330911203821760
:10164000930711F00097D1F58091FA029091FB0277
:1016500020911303309114038217930711F0009720
:1016600081F58091FC029091FD022091150330914B
:1016700016038217930711F0009731F58091FE024F
:101680009091FF022091170330911803821793075E
:10169000F1F00097F9F420E030E01EC0089525E154
:1016A00030E01AC026E130E017C029E230E014C073
:1016B00020E030E011C02AE230E00EC02BE030E044
:1016C0000BC02CE030E008C02FE130E005C020E086
:1016D00030E002C020E230E0822F932F08950E9474
:1016E00047078FEF9FE80197F1F700C000000E94C5
:1016F0004B0780916702909168028130910509F053
:1017000044C14091BB025091BC02CA010196823093
:10171000910548F48091BD029091BE0201968230FD
:10172000910508F432C18091BA0290E04817590738
:1017300009F4C7C22091000330E04217530709F0B3
:10174000A0C01092DD021092DC02BFC2809109039A
:1017500090910A0348175907A1F08091F4029091E3
:10176000F502009709F082C080910B0390910C0361
:101770004817590709F07AC021E030E081E090E095
:101780000AC020E030E081E090E005C020E030E0D9
:1017900002C021E030E03093B0022093AF0290937A
:1017A000DD028093DC0280E090E00E94E0108091F6
:1017B000DC029091DD02009789F58091AF02909153
:1017C000B002009769F40E94E1060E94050885E1D5
:1017D00090E090937E0280937D0221E030E06EC223
:1017E0008130910509F044C20E9447078FEF9FE7BF
:1017F000A6E181509040A040E1F700C000000E94A7
:101800004B070E94E1060E94050886E190E0909354
:101810007E0280937D0221E030E050C2813091054C
:1018200009F029C28091AF029091B002009769F44B
:101830000E9402070E94DE0789E290E090937E02F8
:1018400080937D0221E030E039C28130910509F0BA
:1018500015C20E9402070E94DE078AE290E0909380
:101860007E0280937D0221E030E028C282E090E099
:101870009093B0028093AF029093DD028093DC02DC
:10188000F6C14091BD025091BE028417950709F43C
:1018900046C22417350709F0F4C11092DD021092F8
:1018A000DC0241C28091090390910A03481759074D
:1018B000A1F08091F4029091F502009709F05AC0CE
:1018C00080910B0390910C034817590709F052C0FF
:1018D00021E030E081E090E004C020E030E080E0F2
:1018E00090E03093B0022093AF0221E030E03093DB
:1018F000DD022093DC02009761F51EC00E94E10624
:101900000E94050885E190E090937E0280937D021D
:1019100022E030E0D3C12130310509F0B5C10E9489
:10192000E1060E94050886E190E090937E02809394
:101930007D0222E030E0C2C10E9402070E94DE0761
:1019400089E290E090937E0280937D0222E030E075
:10195000B5C18130910509F09AC10E9402070E9429
:10196000DE078AE290E090937E0280937D0222E07F
:1019700030E0A4C182E090E09093B0028093AF0287
:101980009093DD028093DC0272C180916502909198
:1019900066028130910509F06AC18091AB02909195
:1019A000AC0201968230910548F48091AD0290918D
:1019B000AE0201968230910508F459C10E94470792
:1019C000AFEFBFE81197F1F700C000000E944B078E
:1019D0004091AB025091AC028091030390E0481714
:1019E000590709F4CAC12091B50230E042175307E4
:1019F00009F0A0C01092DD021092DC02C2C18091F9
:101A000015039091160348175907A1F08091FE0223
:101A10009091FF02009709F082C080911703909186
:101A200018034817590709F07AC021E030E081E037
:101A300090E00AC020E030E081E090E005C020E0C6
:101A400030E002C021E030E03093B0022093AF02DA
:101A50009093DD028093DC0280E090E00E94E01031
:101A60008091DC029091DD02009721F58091AF0218
:101A70009091B002009769F40E9402070E94DE076D
:101A80008BE090E090937E0280937D0221E030E035
:101A900015C18130910509F0FDC00E9402070E9426
:101AA000DE078CE090E090937E0280937D0221E03F
:101AB00030E004C18130910509F0EFC08091AF02A0
:101AC0009091B0020097D1F40E9447078FEF9FE7F3
:101AD000A6E181509040A040E1F700C000000E94C4
:101AE0004B070E94E1060E9405088FE190E0909369
:101AF0007E0280937D0221E030E0E0C081309105DC
:101B000009F0CEC00E94E1060E94050880E290E044
:101B100090937E0280937D0221E030E0CFC082E08E
:101B200090E09093B0028093AF029093DD02809397
:101B3000DC029DC04091AD025091AE028417950722
:101B400009F449C12417350709F0ADC01092DD0230
:101B50001092DC0244C1809115039091160348173E
:101B60005907A1F08091FE029091FF02009709F0C1
:101B700074C080911703909118034817590709F012
:101B80006CC021E030E081E090E00AC020E030E06D
:101B900081E090E005C020E030E002C021E030E0CC
:101BA0003093B0022093AF029093DD028093DC0269
:101BB00081E090E00E94E0108091DC029091DD02D3
:101BC000009721F58091AF029091B002009769F4DF
:101BD0000E9402070E94DE078BE090E090937E0255
:101BE00080937D0221E030E069C08130910509F0E9
:101BF0005DC00E9402070E94DE078CE090E0909397
:101C00007E0280937D0221E030E058C08130910552
:101C100009F04FC08091AF029091B002009769F433
:101C20000E94E1060E9405088FE190E090937E02F9
:101C300080937D0221E030E041C081309105E1F5E3
:101C40000E94E1060E94050880E290E090937E02E7
:101C500080937D0221E030E031C082E090E09093FB
:101C6000B0028093AF029093DD028093DC0208956E
:101C700021E030E023C021E030E020C021E030E06E
:101C80001DC020E030E01AC022E030E017C022E0A2
:101C900030E014C021E030E011C021E030E00EC09F
:101CA00021E030E00BC020E030E008C021E030E06F
:101CB00005C021E030E002C021E030E0822F932F08
:101CC00008951092DD021092DC028091DC02909166
:101CD000DD022091EE023091EF022115310541F431
:101CE00020910503309106034217530709F44ECDA6
:101CF0002091F0023091F1022115310541F420913B
:101D00000703309108034217530709F442CD80912D
:101D1000F2029091F302009709F418CD1ECD1092B3
:101D2000DD021092DC028091DC029091DD022091B4
:101D3000EE023091EF022115310541F420910503A7
:101D4000309106034217530709F473C02091F00243
:101D50003091F1022115310541F4209107033091B2
:101D600008034217530709F469C08091F202909169
:101D7000F302009709F496CD9CCD1092DD021092EB
:101D8000DC028091DC029091DD022091F80230911A
:101D9000F9022115310541F420911103309112030C
:101DA0004217530709F44BCE2091FA023091FB02FF
:101DB0002115310541F4209113033091140342178A
:101DC000530709F43FCE8091FC029091FD020097E9
:101DD00009F415CE1BCE1092DD021092DC02809128
:101DE000DC029091DD022091F8023091F902211578
:101DF000310541F42091110330911203421753072A
:101E000009F4C9CE2091FA023091FB022115310567
:101E100041F420911303309114034217530709F43E
:101E2000BDCE8091FC029091FD02009709F493CE03
:101E300099CE40E050E020E030E004C041E050E0C6
:101E400021E030E05093B0024093AF029093DD0266
:101E50008093DC022115310509F05DCD4FCD0F9344
:101E60001F93CF93DF93EB018A01809167029091DA
:101E7000680281309105C9F52097D1F441155105CB
:101E800009F051C00E94E1060E94050885E190E03A
:101E900090937E0280937D020BC00E94E1060E9417
:101EA000050886E190E090937E0280937D024AC00F
:101EB000C130D10509F046C001151105C1F50E94D8
:101EC00002070E94DE0789E290E090937E028093F1
:101ED0007D0238C00E9402070E94DE078AE290E07D
:101EE00090937E0280937D022DC080916502909137
:101EF00066028130910531F5209749F4411551056D
:101F0000D1F40E94E10603C00E94E1061BC0C1306B
:101F1000D105C1F40115110591F40E94020712C008
:101F20000E9402070FC04130510511F6B6CF0130B3
:101F3000110541F4CFCF4130510549F7E5CF0130CC
:101F4000110571F3DF91CF911F910F9108958FEFDC
:101F50009FEFACE281509040A040E1F700C000004C
:101F60008DE20E9492028FEF9FEFACE28150904091
:101F7000A040E1F700C0000080EA0E94E0028FEF7D
:101F80009FEFACE281509040A040E1F700C000001C
:101F90008DE20E94F90208958FEF9FEFACE281502D
:101FA0009040A040E1F700C0000087E80E94920244
:101FB0008FEF9FEFACE281509040A040E1F700C06E
:101FC000000080EA0E94E0028FEF9FEFACE28150B8
:101FD0009040A040E1F700C000008DE20E94F902AD
:101FE0000895209167023091680221303105A1F5F2
:101FF0000097B9F40E94A70F0E94CE020E9412031C
:1020000080917B0290917C029093BC028093BB02F2
:1020100010927A021092790210927C0210927B0246
:1020200008958130910509F0CAC00E94CC0F0E942A
:10203000CE020E94120380917B0290917C029093C9
:10204000BE028093BD0210927A0210927902109221
:102050007C0210927B020895209165023091660205
:1020600021303105A1F50097B9F40E94A70F0E9415
:10207000CE020E94120380917B0290917C02909389
:10208000AC028093AB0210927A0210927902109205
:102090007C0210927B0208958130910509F08FC077
:1020A0000E94CC0F0E94CE020E94120380917B02FC
:1020B00090917C029093AE028093AD0210927A02CE
:1020C0001092790210927C0210927B020895209166
:1020D0005102309152022130310509F070C0209137
:1020E0006B0230916C0221303105A1F50097B9F4F3
:1020F0000E94A70F0E94CE020E94120380917B02D1
:1021000090917C029093AC028093AB0210927A0281
:102110001092790210927C0210927B020895813015
:10212000910509F04CC00E94CC0F0E94CE020E9483
:10213000120380917B0290917C029093AE02809377
:10214000AD0210927A021092790210927C021092E3
:102150007B0208952115310591F50097B9F40E948D
:10216000A70F0E94CE020E94120380917B029091E1
:102170007C029093BC028093BB0210927A02109270
:10218000790210927C0210927B02089581309105B1
:10219000B1F40E94CC0F0E94CE020E9412038091E3
:1021A0007B0290917C029093BE028093BD021092BC
:1021B0007A021092790210927C0210927B020895AA
:1021C000209167023091680221303105C1F50097F6
:1021D000C9F40E94A70F0E94BC020E94120381E072
:1021E00090E090937A02809379028091BB02909163
:1021F000BC0290937C0280937B021092BC021092EE
:10220000BB0208958130910509F056C00E94CC0FA1
:102210000E94BC020E94120381E090E090937A0237
:10222000809379028091BD029091BE0290937C02CE
:1022300080937B021092BE021092BD0208952091FD
:1022400065023091660221303105B1F50097C9F47D
:102250000E94A70F0E94BC020E94120381E090E03E
:1022600090937A02809379028091AB029091AC02B4
:1022700090937C0280937B021092AC021092AB028E
:10228000089581309105C1F40E94CC0F0E94BC02D8
:102290000E94120381E090E090937A028093790289
:1022A0008091AD029091AE0290937C0280937B026C
:1022B0001092AE021092AD0208950E94BD050E94D8
:1022C00047078FEF9FE7A6E181509040A040E1F7DC
:1022D00000C000000E944B07809167029091680245
:1022E0008130910509F012C28091790290917A02B1
:1022F000009709F094C14091EE025091EF02809155
:10230000000390E04817590799F58091F2029091E7
:10231000F302009799F48FE590E00E94D6060E94A0
:10232000050885E190E0909376028093750289E23A
:1023300090E0909374028093730208958091F40268
:102340009091F502009709F086C48FE590E00E9415
:10235000D6060E94050885E190E09093760280936E
:1023600075028AE290E0909374028093730208955C
:102370002091F0023091F1028217930709F04AC0D0
:102380008091F2029091F302009751F50E94470765
:102390008FEF9FEFACE281509040A040E1F700C08A
:1023A00000000E944B078FE590E00E94D6060E9435
:1023B000050886E190E0909376028093750289E2A9
:1023C00090E0909374028093730281E090E0909388
:1023D000700280936F02109284021092830208951B
:1023E0008091F4029091F502009709F034C48FE5D2
:1023F00090E00E94D6060E94050886E190E0909346
:102400007602809375028AE290E090937402809342
:10241000730208956091F2027091F3028091BA0202
:1024200090E06817790769F54115510599F48FE532
:1024300090E00E94F7060E94DE0789E290E0909308
:1024400076028093750285E190E090937402809308
:10245000730208952115310509F0FDC38FE590E061
:102460000E94F7060E94DE0789E290E090937602D0
:102470008093750286E190E09093740280937302DA
:1024800008952091F4023091F5028217930769F5BF
:102490004115510599F48FE590E00E94F7060E94DE
:1024A000DE078AE290E0909376028093750285E1E0
:1024B00090E0909374028093730208956115710502
:1024C00009F0C9C38FE590E00E94F7060E94DE077D
:1024D0008AE290E0909376028093750286E190E024
:1024E000909374028093730208950E946F0B00977B
:1024F00009F0B1C30E94CD0A009789F190937E0242
:1025000080937D02181619060CF0A5C3853191053C
:1025100039F48AE590E00E94D6060E9405080895E5
:102520008631910539F48AE590E00E94D6060E9432
:10253000050808958932910539F48AE590E00E94F2
:10254000F7060E94DE0708958A32910509F083C3D9
:102550008AE590E00E94F7060E94DE0708958091C8
:10256000BB029091BC0201968230910548F48091A3
:10257000BD029091BE0201968230910508F46BC3B2
:102580000E9447078FEF9FE7A6E181509040A0404F
:10259000E1F700C000000E944B078091BB029091C0
:1025A000BC022091BA0230E082179307B9F0409143
:1025B000000350E08417950789F0009779F080E0D8
:1025C00090E00E94E01089EB90E00E94F7060E94E4
:1025D0002D08109284021092830208958091BD020A
:1025E0009091BE022817390709F435C320910003E2
:1025F00030E08217930709F42EC3009709F42BC328
:1026000081E090E00E94E01089EB90E00E94F706E4
:102610000E942D0810928402109283020895813046
:10262000910509F018C380917B0290917C02209162
:10263000EE023091EF022817390769F48FE590E038
:102640000E94D6060E94050885E190E090937E02E4
:1026500080937D0208952091F0023091F10282175B
:10266000930769F48FE590E00E94D6060E94050862
:1026700086E190E090937E0280937D020895209100
:10268000F2023091F3028217930769F48FE590E02C
:102690000E94F7060E94DE0789E290E090937E0296
:1026A00080937D0208952091F4023091F502821703
:1026B000930769F48FE590E00E94F7060E94DE0719
:1026C0008AE290E090937E0280937D02089580914B
:1026D000BB029091BC02009749F480E090E00E9418
:1026E000F10F109284021092830208958091BD022E
:1026F0009091BE02009709F0AEC281E090E00E9486
:10270000F10F109284021092830208958091650265
:10271000909166028130910509F032C28091790270
:1027200090917A02009709F0B4C14091FE02509155
:10273000FF028091030390E04817590799F58091B3
:10274000FA029091FB02009799F48FE590E00E94C5
:10275000D6060E94050880E290E09093760280936E
:1027600075028CE090E09093740280937302089558
:102770008091F8029091F902009709F06CC28FE500
:1027800090E00E94D6060E94050880E290E09093B7
:102790007602809375028BE090E0909374028093B0
:1027A000730208952091FC023091FD028217930775
:1027B00099F58091FA029091FB02009799F48FE5C8
:1027C00090E00E94D6060E9405088FE190E0909369
:1027D0007602809375028CE090E09093740280936F
:1027E000730208958091F8029091F902009709F020
:1027F00032C28FE590E00E94D6060E9405088FE164
:1028000090E090937602809375028BE090E0909335
:1028100074028093730208956091FA027091FB0232
:102820008091B50290E06817790769F54115510567
:1028300099F48FE590E00E94F7060E94DE078CE095
:1028400090E0909376028093750280E290E09093FE
:1028500074028093730208952115310509F0FBC1BC
:102860008FE590E00E94F7060E94DE078CE090E082
:1028700090937602809375028FE190E090937402BA
:102880008093730208952091F8023091F902821723
:10289000930769F54115510599F48FE590E00E9481
:1028A000F7060E94DE078BE090E09093760280931B
:1028B000750280E290E09093740280937302089511
:1028C0006115710509F0C7C18FE590E00E94F70618
:1028D0000E94DE078BE090E0909376028093750271
:1028E0008FE190E0909374028093730208950E94A8
:1028F0006F0B009771F00E9447078FEF9FEFACE2DC
:1029000081509040A040E1F700C000000E944B07BA
:1029100008950E94CD0A009709F469C090937E0241
:1029200080937D02181619060CF095C1209167025C
:10293000309168022130310549F58531910539F42E
:102940008AE590E00E94D6060E9405080895863127
:10295000910539F48AE590E00E94D6060E940508A8
:1029600008958932910539F48AE590E00E94F706CE
:102970000E94DE0708958A32910509F06CC18AE54C
:1029800090E00E94F7060E94DE07089520916502FC
:10299000309166022130310509F05DC18F3191051A
:1029A00039F48AE590E00E94D6060E940508089551
:1029B0008032910539F48AE590E00E94D6060E94A3
:1029C000050808958B30910539F48AE590E00E945E
:1029D000F7060E94DE0708958C30910509F03BC18F
:1029E0008AE590E00E94F7060E94DE070895809134
:1029F000AB029091AC029C012F5F3F4F223031051A
:102A000050F42091AD023091AE022F5F3F4F223043
:102A1000310508F420C12091030330E082179307A9
:102A2000B9F04091B50250E08417950789F00097FE
:102A300079F080E090E00E94E0108EEB90E00E9440
:102A4000F7060E94520810928202109281020895A5
:102A50008091AD029091AE022817390709F4FBC0AE
:102A60002091B50230E08217930709F4F4C0009773
:102A700009F4F1C081E090E00E94E0108EEB90E05C
:102A80000E94F7060E945208109282021092810260
:102A900008958130910509F0DEC080917B0290910C
:102AA0007C022091F8023091F9022817390769F465
:102AB0008FE590E00E94D6060E94050885E190E02F
:102AC00090937E0280937D0208952091FA023091C6
:102AD000FB028217930769F48FE590E00E94D60607
:102AE0000E94050886E190E090937E0280937D022B
:102AF00008952091FC023091FD028217930769F43A
:102B00008FE590E00E94F7060E94DE0789E290E0E0
:102B100090937E0280937D0208952091FE02309171
:102B2000FF028217930769F48FE590E00E94F70691
:102B30000E94DE078AE290E090937E0280937D02FD
:102B400008958091AB029091AC02009749F480E027
:102B500090E00E94F10F1092840210928302089577
:102B60008091AD029091AE02009709F074C081E0AF
:102B700090E00E94F10F109282021092810208955B
:102B800080915102909152028130910509F063C009
:102B9000809187028330E9F58091790290917A02E1
:102BA00081309105E1F40E946F0B009709F053C04A
:102BB0008091AB029091AC02009729F480E090E004
:102BC0000E94F10F08958091AD029091AE0200979E
:102BD00009F041C081E090E00E94F10F089581E08A
:102BE00090E09093660280936502109252021092D8
:102BF0005102109268021092670282E0809385026F
:102C000010928202109281021092700210926F0252
:102C10000895813001F58091790290917A02813096
:102C20009105C9F40E946F0B0097A9F48091AB0243
:102C30009091AC02009729F480E090E00E94F10F9F
:102C400008958091AD029091AE02009721F481E049
:102C500090E00E94F10F08952F923F924F925F9261
:102C60006F927F928F929F92AF92BF92CF92DF929C
:102C7000EF92FF920F931F93CF93DF9300D00F92A9
:102C8000CDB7DEB780918C02813110F40C945A26B6
:102C900080918B02813110F40C945A2680918A0223
:102CA000813110F40C945A260E94470786E69EE074
:102CB0000197F1F7000080915402813071F40E9475
:102CC0004B070E94BD058EE190E00E94070684E05C
:102CD0008093000382E08093B50280915402823099
:102CE00009F0C9C00E944B070E94BD058EE190E02B
:102CF0000E94070681E08093BA0283E08093030379
:102D00009091B5029983A0910003AA83909011033A
:102D10008090120370900503609006030F2EF3E17C
:102D2000CF2EF3E0DF2EF02D0F2EF7E0AF2EF3E0E5
:102D3000BF2EF02DA0E0B0E00EEE12E06FEF7FEFBF
:102D40000F2EF8EFEF2EF2E0FF2EF02D55245394C6
:102D500044240F2EF3E03F2EF02D222441E050E0DA
:102D600020E030E0CD01880F991F9C838B8302C047
:102D70009A01AC018B819C81820F931F880F991F50
:102D8000F801E80FF91F718360838E0D9F1DFC0110
:102D900071836083109779F42115310559F1213041
:102DA000310561F523E0F6012083118221E0F50170
:102DB0002083118223C0A130B10501F52115310511
:102DC00069F42981E5E1F3E02083109216032A815A
:102DD000E9E0F3E0208310920A0310C021303105AE
:102DE00069F42981F601208311822A81F50120836B
:102DF000118204C0752C642C932C822CCA0101967C
:102E00008330910509F0B4CF119684E090E0C80EAC
:102E1000D91EA80EB91EA230B1050CF49FCF82E0D6
:102E200090E09093B0028093AF0290921103809251
:102E3000120370920503609206032FEF3FEF309369
:102E4000BC022093BB023093AC022093AB023093C0
:102E5000BE022093BD023093AE022093AD02909348
:102E6000DD028093DC0280915F0260915D020E942E
:102E7000B2050E94C505809154028330F9F40E9486
:102E80004B0780915F0260915D020E94B2058091C4
:102E90005B0290915C020E9407060E94BD058FEFC5
:102EA0009FE7A4E081509040A040E1F700C00000FF
:102EB0008091590290915A020E94F7068091540223
:102EC000843014F40C9442268BEB60EC0E94B20523
:102ED0000E944B07809153028130A9F580915102E5
:102EE000909152028130910551F4809187028F5F59
:102EF00080938702833021F51092530221C0809184
:102F00006702909168028130910551F480918602A8
:102F10008F5F80938602833099F41092530210C021
:102F200080916502909166028130910549F480910B
:102F300085028F5F80938502833011F410925302D3
:102F40000E94170542C08091510290915202813037
:102F5000910551F4809187028150809387028130DE
:102F600091F5809353022FC080916702909168027F
:102F70008130910589F48091860281508093860288
:102F8000823009F580918302909184020097D9F4F0
:102F900081E08093530217C0809165029091660290
:102FA0008130910581F48091850281508093850262
:102FB000823049F48091810290918202009719F445
:102FC00081E0809353020E941705209187022130EF
:102FD00009F005C180915102909152028130910512
:102FE00009F0FDC00E94BD050E94890A90936E02FF
:102FF00080936D028130910539F510925202109242
:10300000510281E090E090936802809367021092F1
:103010006602109265021092700210926F02809107
:103020007D0290917E029C01295230402230310570
:1030300018F40E94DE0732C745978230910508F0E8
:103040002DC70E9405082AC78230910509F062C089
:103050008091EE029091EF02AFEF8F3F9A07C1F59A
:103060008091F0029091F102BFEF8F3F9B0781F5B5
:103070008091F2029091F302EFEF8F3F9E0741F5AE
:103080008091F4029091F502FFEF8F3F9F0701F5C9
:103090008FE590E00E94F7061092520210925102C2
:1030A00081E090E09093680280936702109266023C
:1030B000109265021092700210926F0210928602B6
:1030C00081E0809353021092840210928302E6C63C
:1030D000109252021092510281E090E090936802A7
:1030E000809367021092660210926502109270023D
:1030F00010926F0281E080938602809353021092B7
:1031000084021092830282E090E090937802809390
:103110007702C4C6009709F0C1C68091EE02909173
:10312000EF022FEF8F3F9207C1F58091F00290914F
:10313000F102AFEF8F3F9A0781F58091F2029091F3
:10314000F302BFEF8F3F9B0741F58091F40290910E
:10315000F502EFEF8F3F9E0701F58FE590E00E94AB
:10316000F706109252021092510281E090E0909383
:1031700068028093670210926602109265021092B4
:10318000700210926F021092860281E080935302C7
:10319000109284021092830281C610925202109201
:1031A000510281E090E09093680280936702109250
:1031B0006602109265021092700210926F0281E016
:1031C00080938602809353021092840210928302AD
:1031D00082E090E090937802809377025FC622307D
:1031E000D1F480915102909152028130910599F46D
:1031F0008091830290918402009769F4109280027A
:1032000010927F021092680210926702109266027A
:103210001092650243C620918602213009F0C4C293
:1032200080916702909168028130910509F0BCC2DB
:1032300080918302909184028130910511F00C9469
:1032400048260E94BD058091790290917A028130D2
:103250009105E9F580917F0290918002813091057E
:1032600051F18091BB029091BC0201968230910590
:1032700068F480E690E00E94F70680E090E00E940B
:10328000F10F10927C0210927B0221C08091BD024E
:103290009091BE02019682309105C8F480E690E0DC
:1032A0000E94F70681E090E00E94F10F10927C02EC
:1032B00010927B020CC08AE590E00E94D6060E9424
:1032C0002D080E94C5051092800210927F02809105
:1032D000F2029091F302FFEF8F3F9F0741F0809140
:1032E000F4029091F5022FEF8F3F920749F480E6A8
:1032F00090E00E94F7060E94DE070E94C505CEC539
:1033000080E690E00E94D6060E9405080E94C5054E
:10331000C5C50E94BD0580917502909176028932E3
:103320009105F9F40E94A5088091F2029091F302B0
:103330000E94D3081092F3021092F20289EB90E0FF
:103340000E94D6060E94AC070E94C50581E090E06D
:103350009093700280936F02109276021092750221
:103360009DC58A32910519F50E9477088091F20275
:103370009091F3020E94D3081092F3021092F2028D
:1033800089EB90E00E94D6060E94AC07109284025E
:103390001092830281E090E09093700280936F021C
:1033A0000E94C505109276021092750277C5809131
:1033B0007302909174028932910541F50E94770859
:1033C0000E94CE0280917B0290917C029093F50244
:1033D0008093F4020E94120310927C0210927B02EE
:1033E00010927402109273021092700210926F0287
:1033F00081E08093530281E090E090937802809383
:10340000770289EB90E00E94F70648C58A32910561
:1034100041F50E94A5080E94CE0280917B02909106
:103420007C029093F5028093F4020E9412031092A2
:103430007C0210927B02109274021092730210921E
:10344000700210926F0281E08093530281E090E05D
:10345000909378028093770289EB90E00E94F706C0
:103460001DC580917D0290917E028932910509F0FF
:1034700043C08091790290917A0281309105B9F42C
:103480000E9477080E94CE0280917B0290917C027C
:103490009093F3028093F2020E94120310927C0236
:1034A00010927B0210927E0210927D02F7C40E945D
:1034B00077088091F2029091F3020E94D3088091E4
:1034C000F2029091F30290937C0280937B0210921F
:1034D000F3021092F2028AE590E00E94F7060E9441
:1034E0005C0781E090E09093800280937F021092CD
:1034F0007E0210927D02D2C48A32910509F043C047
:103500008091790290917A0281309105B9F40E94FC
:10351000A5080E94CE0280917B0290917C0290933C
:10352000F3028093F2020E94120310927C02109226
:103530007B0210927E0210927D02B0C40E94A50808
:103540008091F4029091F5020E94D3088091F402D8
:103550009091F50290937C0280937B021092F50289
:103560001092F4028AE590E00E94F7060E945C0740
:1035700081E090E09093800280937F0210927E021F
:1035800010927D028BC410926A021092690280919F
:10359000F2029091F302AFEF8F3F9A07A1F480916E
:1035A000790290917A02009771F40E94770881E085
:1035B00090E0909372028093710284E090E0909387
:1035C000F3028093F2028091F2029091F302209133
:1035D000090330910A038217930709F442C0BFEF31
:1035E0008F3F9B0709F43FC00097E9F18091790272
:1035F00090917A020097B9F58091BB029091BC023C
:1036000001968230910540F08091BD029091BE02FA
:1036100001968230910510F58091710290917202AD
:103620008130910511F00E9477088091F20290910B
:10363000F3020E94D3081092F3021092F2028EEB72
:1036400090E00E94F7060E945C070E94C50581E099
:1036500090E090936A028093690205C00E94120371
:1036600002C00E9412038091F4029091F502EFEFE4
:103670008F3F9E0721F58091790290917A02009701
:10368000F1F48091690290916A0281309105B9F05C
:103690000E94A50882E090E09093720280937102EC
:1036A00083E090E09093F5028093F4028FEF9FE720
:1036B000A4E081509040A040E1F700C0000080915C
:1036C000F4029091F50220910B0330910C038217C4
:1036D000930709F454C0AFEF8F3F9A0709F44FC026
:1036E000009709F44CC02091790230917A0221159B
:1036F000310509F044C02091690230916A022130FD
:103700003105E9F18091BB029091BC0201968230B3
:10371000910540F08091BD029091BE0201968230E9
:10372000910520F58091710290917202823091058D
:1037300011F00E94A5088091F4029091F5020E9478
:10374000D3088091F4029091F50290937C028093CB
:103750007B021092F5021092F4028EEB90E00E9430
:10376000F7060E945C070E94C50598C30E941203D9
:1037700089EB90E00E94F7060E945C078FC32091BE
:10378000090330910A038217930709F087C3109247
:103790007A02109279020E94120389EB90E00E9453
:1037A000F7060E945C077AC3223009F03DC1809180
:1037B0006702909168028130910509F035C18091CE
:1037C0008302909184028130910509F0BAC0809102
:1037D0006F02909170028130910509F4B2C00E948D
:1037E000BD058091790290917A028130910509F0AE
:1037F00053C080917F02909180028130910539F110
:103800008091BB029091BC02009769F480E690E041
:103810000E94D60680E090E00E94F10F10927C0298
:1038200010927B026CC08091BD029091BE02009705
:1038300009F06DC080E690E00E94D60681E090E03D
:103840000E94F10F10927C0210927B0258C00E94DD
:1038500047078FEF9FE7A6E181509040A040E1F736
:1038600000C000000E944B0780917702909178027F
:10387000009729F48AE590E00E94F70604C08AE5E3
:1038800090E00E94D6060E942D080E94C505109265
:1038900084021092830233C08091BB029091BC02DB
:1038A0000097B9F080E090E00E94E0108091BB02A8
:1038B0009091BC0290937C0280937B0281E090E027
:1038C00090937A02809379021092BC021092BB020C
:1038D00016C081E090E00E94E0108091BB029091C0
:1038E000BC0290937C0280937B0281E090E09093F5
:1038F0007A02809379021092BE021092BD028091EA
:103900007F02909180028130910509F4C7C28091B5
:10391000EE029091EF02AFEF8F3F9A0749F080914E
:10392000F0029091F102BFEF8F3F9B0709F0B6C202
:1039300080E690E00E94D6060E9405080E94C50518
:10394000ADC280918302909184020097A1F480918E
:103950006F02909170028130910569F48091770235
:10396000909178028130910519F00E94DE0796C28D
:103970000E94050893C2809183029091840200976F
:1039800009F052C080916F029091700281309105D0
:1039900009F44AC0809177029091780281309105B4
:1039A00029F48FE590E00E94F70606C0009721F405
:1039B0008FE590E00E94D6068091EE029091EF0292
:1039C000EFEF8F3F9E07D9F08091F0029091F102C6
:1039D000FFEF8F3F9F0799F08091F2029091F302E1
:1039E0002FEF8F3F920759F08091F4029091F502EA
:1039F000AFEF8F3F9A0719F00E945D114FC280917F
:103A00007702909178028130910539F48FE590E04A
:103A10000E94D6060E94050841C28FE590E00E94F0
:103A2000F7060E94DE073AC2233009F037C28091C0
:103A30006702909168028130910509F02FC2809150
:103A4000830290918402009709F028C20E94BD056C
:103A500080917502909176028531910519F50E9449
:103A6000A5088091EE029091EF020E94D308109277
:103A7000EF021092EE0289EB90E00E94D6060E94BF
:103A8000AC07109284021092830281E090E0909340
:103A9000700280936F020E94C50510927602109208
:103AA0007502FCC18631910581F50E9447078FEFB1
:103AB0009FEFACE281509040A040E1F700C00000D1
:103AC0000E944B070E9477088091F0029091F102CA
:103AD0000E94D3081092F1021092F00289EB90E05C
:103AE0000E94D6060E94AC071092840210928302B4
:103AF00081E090E09093700280936F0210925302E5
:103B00001092760210927502C9C180917302909151
:103B100074028531910509F50E94A5080E94CE0224
:103B200080917B0290917C029093EF028093EE0251
:103B30000E94120310927C0210927B021092740277
:103B4000109273021092700210926F020E94AC07E2
:103B500089EB90E00E94F706A1C18631910509F535
:103B60000E9477080E94CE0280917B0290917C0295
:103B70009093F1028093F0020E94120310927C0253
:103B800010927B02109274021092730210927002D3
:103B900010926F020E94AC0789EB90E00E94F7063A
:103BA0007DC180917D0290917E0285319105E9F57C
:103BB0008091790290917A0281309105B9F40E9446
:103BC000A5080E94CE0280917B0290917C02909386
:103BD000EF028093EE020E94120310927C02109278
:103BE0007B0210927E0210927D0258C10E94A508AD
:103BF0008091EE029091EF020E94D3081092EF02A2
:103C00001092EE0289EB90E00E94D60681E090E0EF
:103C10009093800280937F020E94AC070E94C505AA
:103C200010927E0210927D0239C18631910509F011
:103C300041C08091790290917A0281309105E9F436
:103C40000E9477080E94CE0280917B0290917C02B4
:103C50009093F1028093F0020E94120310927C0272
:103C600010927B0289EB90E00E94F7060E94AC075D
:103C700010927E0210927D0211C10E9477088091FD
:103C8000F0029091F1020E94D3081092F10210927A
:103C9000F00289EB90E00E94F70681E090E09093BB
:103CA000800280937F020E94AC0710927E021092E5
:103CB0007D02F4C08091F0029091F102AFEF8F3F4E
:103CC0009A0791F48091790290917A02009761F4B9
:103CD0000E94770881E090E09093720280937102D5
:103CE0009093F1028093F0028091F0029091F102A2
:103CF00020910703309108038217930709F44FC0FE
:103D0000BFEF8F3F9B0709F44AC0009709F447C0F3
:103D10008091790290917A02009709F040C08091D9
:103D2000BB029091BC0201968230910540F08091D7
:103D3000BD029091BE0201968230910520F58091DE
:103D40007102909172028130910511F00E94770802
:103D50008091F0029091F1020E94D3088091F002CC
:103D60009091F10290937C0280937B021092F10279
:103D70001092F00289EB90E00E94F7060E94AC07D7
:103D80000E94C5050EC00E9412038FEF9FE7A6E1B7
:103D900081509040A040E1F700C0000002C00E94A6
:103DA00012038091EE029091EF02AFEF8F3F9A07DE
:103DB000A1F48091790290917A02009771F40E94A7
:103DC000A50882E090E0909372028093710281E0F6
:103DD00090E09093EF028093EE028091EE0290913A
:103DE000EF0220910503309106038217930709F42F
:103DF00049C0BFEF8F3F9B0709F444C0009709F407
:103E000041C08091790290917A020097D9F5809112
:103E1000BB029091BC0201968230910540F08091E6
:103E2000BD029091BE0201968230910510F58091FD
:103E30007102909172028230910511F00E94770810
:103E40008091EE029091EF020E94D3088091EE02E1
:103E50009091EF0290937C0280937B021092EF028C
:103E60001092EE0289EB90E00E94D6060E94AC0709
:103E700015C00E94120389EB90E00E94F7060E9491
:103E8000AC070CC010927A02109279020E941203C1
:103E900089EB90E00E94F7060E94AC0780918702B0
:103EA000833009F005C18091510290915202813016
:103EB000910509F0FDC00E94BD050E94450A90933E
:103EC0006E0280936D028130910539F51092520295
:103ED0001092510281E090E0909366028093650217
:103EE00010926802109267021092700210926F0294
:103EF00080917D0290917E029C012B5030402230B7
:103F0000310518F40E94DE07BDC64F978230910537
:103F100008F0B8C60E940508B5C68230910509F0C0
:103F200062C08091F8029091F902EFEF8F3F9E07F7
:103F3000C1F58091FA029091FB02FFEF8F3F9F073E
:103F400081F58091FC029091FD022FEF8F3F920747
:103F500041F58091FE029091FF02AFEF8F3F9A07EB
:103F600001F58FE590E00E94F70610925202109240
:103F7000510281E090E09093660280936502109276
:103F80006802109267021092700210926F021092F3
:103F9000850281E080935302109282021092810286
:103FA00071C6109252021092510281E090E09093FB
:103FB0006602809365021092680210926702109266
:103FC000700210926F0281E0809385028093530209
:103FD000109282021092810282E090E09093780227
:103FE000809377024FC6009709F04CC68091F80283
:103FF0009091F902BFEF8F3F9B07C1F58091FA02C4
:104000009091FB02EFEF8F3F9E0781F58091FC02BC
:104010009091FD02FFEF8F3F9F0741F58091FE02D7
:104020009091FF022FEF8F3F920701F58FE590E00F
:104030000E94F706109252021092510281E090E025
:104040009093660280936502109268021092670254
:104050001092700210926F021092850281E080939C
:10406000530210928202109281020CC610925202E8
:104070001092510281E090E0909366028093650275
:1040800010926802109267021092700210926F02F2
:1040900081E08093850280935302109282021092F5
:1040A000810282E090E09093780280937702EAC5E3
:1040B00020918502213009F099C28091650290918A
:1040C00066028130910509F091C280918102909140
:1040D00082028130910509F0E5C50E94BD058091FD
:1040E000790290917A0281309105E9F580917F0201
:1040F000909180028130910551F18091AB029091B5
:10410000AC0201968230910568F480E690E00E944E
:10411000F70680E090E00E94F10F10927C0210926E
:104120007B0221C08091AD029091AE020196823057
:104130009105C8F480E690E00E94F70681E090E0E7
:104140000E94F10F10927C0210927B020CC08AE553
:1041500090E00E94D6060E9452080E94C505109267
:10416000800210927F028091F8029091F902AFEFE5
:104170008F3F9A0741F08091FA029091FB02BFEFC6
:104180008F3F9B0749F480E690E00E94F7060E946B
:10419000DE070E94C50576C580E690E00E94D6063F
:1041A0000E9405080E94C5056DC50E94BD0580914D
:1041B0007502909176028B309105F9F40E94A50862
:1041C0008091F8029091F9020E94D3081092F902AE
:1041D0001092F80289EB90E00E94D6060E94AC078C
:1041E00081E090E09093700280936F020E94C50579
:1041F000109276021092750245C58C30910519F522
:104200000E9477088091FA029091FB020E94D308E5
:104210001092FB021092FA0289EB90E00E94D606FF
:1042200001E010E01093800200937F020E94AC072F
:104230001093700200936F020E94C50510927602DF
:10424000109275021FC580917302909174028B3099
:10425000910509F50E94A5080E94CE0280917B027B
:1042600090917C029093F9028093F8020E941203CD
:1042700010927C0210927B021092740210927302D0
:1042800089EB90E00E94F7060E945C071092700292
:1042900010926F02F7C48C30910509F50E947708DF
:1042A0000E94CE0280917B0290917C029093FB024F
:1042B0008093FA020E94120310927C0210927B02F9
:1042C000109274021092730289EB90E00E94F7063C
:1042D0000E945C071092700210926F02D3C480910A
:1042E0007D0290917E028C309105D9F58091790202
:1042F00090917A028130910599F40E9477080E948A
:10430000CE0280917B0290917C029093FD0280937B
:10431000FC020E94120310927C0210927B02B2C433
:104320000E9477088091FC029091FD020E94D308C0
:104330008091FC029091FD0290937C0280937B021D
:104340001092FD021092FC028AE590E00E94F706AE
:104350000E945C0781E090E09093800280937F024E
:1043600091C48B309105D9F58091790290917A02B0
:104370008130910599F40E94A5080E94CE02809197
:104380007B0290917C029093F9028093F8020E9444
:10439000120310927C0210927B0274C40E94A50842
:1043A0008091F8029091F9020E94D3088091F8025E
:1043B0009091F90290937C0280937B021092F90213
:1043C0001092F8028AE590E00E94F7060E945C07CE
:1043D00081E090E09093800280937F0253C410921A
:1043E0006A02109269028091FA029091FB02EFEF4B
:1043F0008F3F9E07A1F48091790290917A020097F5
:1044000071F40E94770881E090E0909372028093AB
:10441000710284E090E09093FB028093FA02809115
:10442000FA029091FB02209113033091140382173A
:10443000930709F445C0FFEF8F3F9F0709F446C07B
:10444000009709F443C08091790290917A02009715
:10445000E9F58091AB029091AC0201968230910512
:1044600040F08091AD029091AE02019682309105AC
:1044700000F580917102909172028130910511F0E6
:104480000E9477088091FA029091FB020E94D30863
:104490001092FB021092FA0284EB90E00E94F70661
:1044A0000E945C0781E090E090936A028093690229
:1044B0000DC00E94120310926A021092690206C097
:1044C0000E94120310926A02109269028091F8020F
:1044D0009091F9022FEF8F3F9207D9F480917902E2
:1044E00090917A020097A9F48091690290916A02F2
:1044F0008130910571F00E94A50882E090E09093D0
:1045000072028093710283E090E09093F9028093AD
:10451000F8028091F8029091F902209111033091F4
:1045200012038217930709F454C0AFEF8F3F9A0725
:1045300009F4A8C3009709F4A5C38091790290916A
:104540007A02009709F09EC38091690290916A02F5
:104550008130910509F496C38091AB029091AC0231
:1045600001968230910540F08091AD029091AE02AB
:1045700001968230910520F580917102909172022E
:104580008230910511F00E94A5088091F802909167
:10459000F9020E94D3088091F8029091F902909359
:1045A0007C0280937B021092F9021092F80289EB50
:1045B00090E00E94F7060E945C070E94C50562C356
:1045C0000E94120389EB90E00E94F7060E945C07AC
:1045D00059C310927A02109279020E94120389EB59
:1045E00090E00E94F7060E945C074CC3223009F05D
:1045F0004DC180916502909166028130910509F06C
:1046000045C180918102909182028130910509F02B
:10461000CAC080916F02909170028130910509F4B7
:10462000C2C00E94BD058091790290917A028130CA
:10463000910509F063C080917F02909180028130E2
:104640009105B9F18091AB029091AC020097A9F469
:1046500080E690E00E94D60680E090E00E94F10F94
:1046600080917B0290917C029093AC028093AB028C
:1046700010927C0210927B0274C08091BD029091D6
:10468000BE02009709F075C080E690E00E94D60651
:1046900081E090E00E94F10F80917B0290917C027A
:1046A0009093AC028093AB0210927C0210927B023A
:1046B00058C00E9447078FEF9FE7A6E181509040C6
:1046C000A040E1F700C000000E944B0780917702F4
:1046D00090917802009729F48AE590E00E94F7060D
:1046E00004C08AE590E00E94D6060E9452080E940B
:1046F000C505109282021092810233C08091AB02F4
:104700009091AC020097B9F080E090E00E94E01038
:104710008091AB029091AC0290937C0280937B02DB
:1047200081E090E090937A02809379021092AC023B
:104730001092AB0216C081E090E00E94E0108091E0
:10474000AB029091AC0290937C0280937B0281E05B
:1047500090E090937A02809379021092AE021092C8
:10476000AD0280917F02909180028130910509F421
:1047700089C28091F8029091F902AFEF8F3F9A07BA
:1047800049F08091FA029091FB02BFEF8F3F9B07A7
:1047900009F078C280E690E00E94D6060E940508E3
:1047A0000E94C5056FC2809181029091820200979C
:1047B000A1F480916F02909170028130910569F4AB
:1047C00080917702909178028130910519F00E94D2
:1047D000DE0758C20E94050855C28091810290915F
:1047E0008202009709F052C080916F02909170028E
:1047F0008130910509F446C2809177029091780248
:104800008130910529F48FE590E00E94F70606C0FB
:10481000009721F48FE590E00E94D6068091F8027F
:104820009091F902EFEF8F3F9E07D9F08091FA0245
:104830009091FB02FFEF8F3F9F0799F08091FC0260
:104840009091FD022FEF8F3F920759F08091FE0269
:104850009091FF02AFEF8F3F9A0719F00E945D1110
:1048600011C280917702909178028130910539F4DC
:104870008FE590E00E94D6060E94050803C28FE5EE
:1048800090E00E94F7060E94DE07FCC1233009F089
:10489000F9C180916502909166028130910509F01D
:1048A000F1C18091810290918202009709F0EAC1E2
:1048B0000E94BD058091750290917602803291052B
:1048C00019F50E94A5088091FE029091FF020E94B6
:1048D000D3081092FF021092FE0289EB90E00E9432
:1048E000D6060E94AC07109282021092810281E0EB
:1048F00090E09093700280936F020E94C505109221
:10490000760210927502BEC18F31910571F50E9439
:1049100047078FEF9FEFACE281509040A040E1F756
:1049200000C000000E944B070E9477088091FC02A3
:104930009091FD020E94D3081092FD021092FC0299
:1049400089EB90E00E94D6060E94AC07109282028A
:104950001092810281E090E09093700280936F0248
:1049600010927602109275028DC18091730290911F
:1049700074028032910509F50E94A5080E94CE02BA
:1049800080917B0290917C029093FF028093FE02C3
:104990000E94120310927C0210927B021092740209
:1049A000109273021092700210926F020E94AC0774
:1049B00089EB90E00E94F70665C18F31910509F5FA
:1049C0000E9477080E94CE0280917B0290917C0227
:1049D0009093FD028093FC020E94120310927C02CD
:1049E00010927B0210927402109273021092700265
:1049F00010926F020E94AC0789EB90E00E94F706CC
:104A000041C180917D0290917E0280329105C9F56D
:104A10008091790290917A0281309105C9F40E94C7
:104A2000A5080E94CE0280917B0290917C02909317
:104A3000FF028093FE020E94120310927C021092E9
:104A40007B020E94AC0789EB90E00E94F7061AC136
:104A50000E94A5088091FE029091FF020E94D30857
:104A60001092FF021092FE0289EB90E00E94D6069F
:104A700081E090E09093800280937F020E94AC07D7
:104A800001C18F319105C9F58091790290917A0227
:104A900081309105C9F40E9477080E94CE0280916E
:104AA0007B0290917C029093FD028093FC020E9415
:104AB000120310927C0210927B020E94AC0789EBD9
:104AC00090E00E94F706DEC00E9477088091FC0209
:104AD0009091FD020E94D3081092FD021092FC02F8
:104AE00089EB90E00E94F70681E090E090938002CD
:104AF00080937F020E94AC07C5C010926A02109298
:104B000069028091FC029091FD02AFEF8F3F9A07FE
:104B1000A1F48091790290917A02009771F40E9439
:104B2000770881E090E0909372028093710283E0B5
:104B300090E09093FD028093FC028091FC029091A2
:104B4000FD0220911503309116038217930709F493
:104B50004CC0BFEF8F3F9B0709F449C0009709F491
:104B600046C08091790290917A02009709F03FC087
:104B70008091AB029091AC0201968230910540F099
:104B80008091AD029091AE0201968230910550F570
:104B900080917102909172028130910511F00E9412
:104BA00077088091FC029091FD020E94D3088091C9
:104BB000FC029091FD0290937C0280937B02109204
:104BC000FD021092FC028CEB90E00E94F7060E941E
:104BD000AC070E94C50581E090E090936A02809343
:104BE000690205C00E94120302C00E941203809154
:104BF000FE029091FF02EFEF8F3F9E07C9F4809174
:104C0000790290917A02009799F4809169029091CB
:104C10006A028130910561F00E94A50882E090E06F
:104C200090937202809371029093FF028093FE0230
:104C30008091FE029091FF0220911703309118039A
:104C40008217930799F0FFEF8F3F9F0721F0109293
:104C5000FF021092FE022091FE023091FF0280912D
:104C60001703909118032817390761F410927A02FC
:104C7000109279020E94120389EB90E00E94F706DD
:104C80000E94AC07809154028F5F8093540212C03F
:104C90008091830290918402009711F00C94D41BB0
:104CA0000C9489198091810290918202009709F0F9
:104CB0009DCC7BCA0F900F900F900F90DF91CF91FA
:104CC0001F910F91FF90EF90DF90CF90BF90AF902A
:104CD0009F908F907F906F905F904F903F902F901C
:104CE00008950E94FC040E948D040E9418070E94EF
:104CF00044070E9418070E949A050E949D050E9481
:104D00003A020E9469020E946C020E943D020E94C7
:104D100048020E9453020E945E020E944C030895C2
:104D2000F8940E9471260E946F020E94A0050E94C2
:104D3000A9050E9451030E9494040E9429077894B7
:104D400008958FEF9FEFACE281509040A040E1F7D3
:104D500000C000000E948E038FEF9FEFACE28150F5
:104D60009040A040E1F700C000000E94E3038FEFF5
:104D70009FEFACE281509040A040E1F700C00000FE
:104D80000E9438048FEF9FEFACE281509040A0402A
:104D9000E1F700C0000008950E94A1268091C7029B
:104DA0009091C802A091C902B091CA02853125E054
:104DB000920720E0A20720E0B20708F069C08091C6
:104DC000C7029091C802A091C902B091CA02803274
:104DD00023E0920720E0A20720E0B20708F458C0C1
:104DE0008091C3029091C402A091C502B091C60205
:104DF000853125E0920720E0A20720E0B20708F005
:104E000047C08091C3029091C402A091C502B091A5
:104E1000C602803223E0920720E0A20720E0B2071A
:104E2000B8F18091B1029091B202A091B302B09119
:104E3000B402853125E0920720E0A20720E0B20706
:104E400038F58091B1029091B202A091B302B09175
:104E5000B402803223E0920720E0A20720E0B207EC
:104E6000B8F081E061E00E948D0184E292E00E944E
:104E70007E018FEF9FE7A6E181509040A040E1F7CF
:104E800000C0000081E00E941B0184E090E00895D2
:104E90004091C3025091C4026091C5027091C60254
:104EA0008091C7029091C802A091C902B091CA0234
:104EB00084179507A607B70760F54091C302509184
:104EC000C4026091C5027091C6028091B1029091B6
:104ED000B202A091B302B091B40284179507A6075D
:104EE000B707B8F481E061E00E948D0180E392E0B1
:104EF0000E947E018FEF9FEFACE281509040A04076
:104F0000E1F700C0000081E00E941B0182E090E018
:104F100008954091B1025091B2026091B302709134
:104F2000B4028091C7029091C802A091C902B091C9
:104F3000CA0284179507A607B70760F54091B1022A
:104F40005091B2026091B3027091B4028091C30299
:104F50009091C402A091C502B091C6028417950732
:104F6000A607B707B8F481E061E00E948D018CE3E9
:104F700092E00E947E018FEF9FEFACE28150904063
:104F8000A040E1F700C0000081E00E941B0183E027
:104F900090E008954091C7025091C8026091C90203
:104FA0007091CA028091C3029091C402A091C5027F
:104FB000B091C60284179507A607B70760F5409120
:104FC000C7025091C8026091C9027091CA028091D3
:104FD000B1029091B202A091B302B091B4028417D1
:104FE0009507A607B707D0F481E061E00E948D0124
:104FF00087E492E00E947E018FEF9FEFACE2815048
:105000009040A040E1F700C0000081E00E941B0139
:1050100081E090E008958FEF9FEF08958FEF9FEF6D
:1050200008950E94CC2608950E9490260E94D800E0
:105030000E9440010E948B030E941203CFE5D2E040
:105040000DE512E00E947E050E94C5058881F801E9
:1050500060810E94B2050E944B070E944F07F2CF69
:105060005058BB27AA270ED04DC13ED130F043D1B6
:1050700020F031F49F3F11F41EF433C10EF4E0959B
:10508000E7FB29C1E92F4FD180F3BA1762077307F5
:105090008407950718F071F49EF567C10EF4E0954A
:1050A0000B2EBA2FA02D0B01B90190010C01CA01E2
:1050B000A0011124FF27591B99F0593F50F4503E8D
:1050C00068F11A16F040A22F232F342F4427585F7F
:1050D000F3CF469537952795A795F0405395C9F797
:1050E0007EF41F16BA0B620B730B840BBAF091504F
:1050F000A1F0FF0FBB1F661F771F881FC2F70EC0EE
:10510000BA0F621F731F841F48F4879577956795C0
:10511000B795F7959E3F08F0B3CF9395880F08F0A9
:105120009927EE0F9795879508950CD0EBC0E3D0A3
:1051300040F0DAD030F021F45F3F19F0CCC05111CB
:1051400015C1CFC0F0D098F39923C9F35523B1F31B
:10515000951B550BBB27AA2762177307840738F0E6
:105160009F5F5F4F220F331F441FAA1FA9F333D045
:105170000E2E3AF0E0E830D091505040E695001CF9
:10518000CAF729D0FE2F27D0660F771F881FBB1FB5
:10519000261737074807AB07B0E809F0BB0B802D8F
:1051A000BF01FF2793585F4F2AF09E3F510568F0DB
:1051B00092C0DCC05F3FECF3983EDCF386957795B8
:1051C0006795B795F7959F5FC9F7880F911D9695DD
:1051D000879597F90895E1E0660F771F881FBB1F39
:1051E000621773078407BA0720F0621B730B840BE6
:1051F000BA0BEE1F88F7E095089504D06894B111BA
:10520000B5C0089598D088F09F5790F0B92F99278E
:10521000B751A0F0D1F0660F771F881F991F1AF0C1
:10522000BA95C9F712C0B13081F09FD0B1E00895AE
:105230009CC0672F782F8827B85F39F0B93FCCF32F
:10524000869577956795B395D9F73EF490958095B7
:10525000709561957F4F8F4F9F4F0895E89409C0D7
:1052600097FB3EF490958095709561957F4F8F4F99
:105270009F4F9923A9F0F92F96E9BB279395F695AF
:10528000879577956795B795F111F8CFFAF4BB0F2D
:1052900011F460FF1BC06F5F7F4F8F4F9F4F16C091
:1052A000882311F096E911C0772321F09EE8872F1B
:1052B000762F05C0662371F096E8862F70E060E0D7
:1052C0002AF09A95660F771F881FDAF7880F969550
:1052D000879597F9089597F99F6780E870E060E0F7
:1052E00008959FEF80EC089500240A94161617067F
:1052F00018060906089500240A94121613061406C7
:1053000005060895092E0394000C11F4882352F029
:10531000BB0F40F4BF2B11F460FF04C06F5F7F4FE1
:105320008F4F9F4F089557FD9058440F551F59F0C8
:105330005F3F71F04795880F97FB991F61F09F3F82
:1053400079F087950895121613061406551FF2CFAB
:105350004695F1DF08C0161617061806991FF1CFFB
:1053600086957105610508940895E894BB27662722
:105370007727CB0197F908950BD0C4CFB5DF28F07C
:10538000BADF18F0952309F0A6CFABCF1124EECFEA
:10539000CADFA0F3959FD1F3950F50E0551F629F90
:1053A000F001729FBB27F00DB11D639FAA27F00D7E
:1053B000B11DAA1F649F6627B00DA11D661F829FA5
:1053C0002227B00DA11D621F739FB00DA11D621F8A
:1053D000839FA00D611D221F749F3327A00D611DA7
:1053E000231F849F600D211D822F762F6A2F112489
:1053F0009F5750408AF0E1F088234AF0EE0FFF1FDC
:10540000BB1F661F771F881F91505040A9F79E3F12
:10541000510570F060CFAACF5F3FECF3983EDCF30C
:10542000869577956795B795F795E7959F5FC1F74F
:10543000FE2B880F911D9695879597F90895FA018F
:10544000EE0FFF1F30962105310599F161157105A9
:1054500061F48038BFE39B0749F168949038810577
:1054600061F08038BFEF9B0741F0992342F5FF3F81
:10547000E1053105210511F1E8940894E795D9017A
:10548000AA2329F4AB2FBE2FF85FD0F310C0FF5F23
:1054900070F4A695E0F7F73950F019F0FF3A38F4B8
:1054A0009F779F930CD00F9007FC905808953EF083
:1054B00018CF60E070E080E89FE308954FE79F77A2
:1054C0005F934F933F932F939ED02F913F914F9196
:1054D0005F9152DF05C019F40EF0FDCE46CF01CF2B
:1054E0002ADFC8F39638C0F707F80F92E8942BE349
:1054F0003AEA48EB5FE74EDF0F920F920F924DB7FB
:105500005EB70F92C0D0E4EEF0E016D04F915F91FD
:10551000EF91FF91E595EE1FFF1F49F0FE57E06800
:105520004427EE0F441FFA95E1F74195550B32D011
:105530000F9007FE26C00895DF93CF931F930F931C
:10554000FF92EF92DF927B018C01689405C0DA2E06
:10555000EF011EDFFE01E894A5912591359145915B
:105560005591AEF3EF018EDDFE019701A801DA94AB
:1055700079F7DF90EF90FF900F911F91CF91DF911E
:1055800008959B01AC0160E070E080E89FE3CDCD21
:10559000A2CEACC0D0DEE8F39923D9F3940F511D0D
:1055A000BBF39150504094F059F0882332F0660FCD
:1055B000771F881F91505040C1F79E3F510544F717
:1055C000880F911D9695879597F908955F3FACF0E8
:1055D000983E9CF0BB27869577956795B79508F41C
:1055E000B1609395C1F7BB0F58F711F460FFE8CF96
:1055F0006F5F7F4F8F4F9F4FE3CFB8CE0EF076C0D7
:1056000070CE689468CE97DEC8F39923D1F3C6F3C1
:10561000DF93CF931F930F93FF92C92FDD2788232A
:105620002AF02197660F771F881FDAF720E030E015
:1056300040E85FEB9FE3883920F0803E30F0219610
:105640008F770FDDECE0F1E003C00BDDE9E3F1E083
:1056500073DF8B01BE01EC01FB2E6F57710975954D
:10566000771F880B990BFCDD28E132E741E35FE30C
:105670008FDEAF2D9801AE01FF900F911F91CF915A
:10568000DF9100DD3FCEFA01DC01AA0FBB1F9B01B9
:10569000AC01BF5728F422273327442750781FC076
:1056A000B75188F4AB2F0024469537952795011CF8
:1056B000A395D2F3002069F0220F331F441FB39546
:1056C000DAF30DD0CDCC61307105A0E88A07B94678
:1056D00030F49B01AC0166277727882790783096B5
:1056E00021F0208331834283538308959F3F31F01B
:1056F000915020F4879577956795B795880F911D00
:105700009695879597F90895AA1BBB1B51E107C091
:10571000AA1FBB1FA617B70710F0A61BB70B881F41
:10572000991F5A95A9F780959095BC01CD010895D0
:04573000F894FFCF1B
:105734005265642050756C73657300477265656EBD
:105744002050756C73657300426C75652050756CE0
:1057540073657300424C41434B20636F6C6F72005E
:10576400475245454E20636F6C6F7200424C55455D
:1057740020636F6C6F720052454420636F6C6F72CC
:105784000001000101190012005D003B00BE00BCD5
:02579400000013
:00000001FF
